:020000040800F2
:10000000901900206D350008D90A0008DB0A0008A5
:10001000DF0A0008E30A0008E70A00080000000001
:10002000000000000000000000000000EB0A0008D3
:10003000ED0A000800000000EF0A0008F10A0008BD
:1000400087350008873500088735000887350008A0
:100050008735000887350008873500088735000890
:100060008735000887350008873500088735000880
:100070008735000887350008873500088735000870
:100080008735000887350008873500088735000860
:100090008735000887350008873500088735000850
:1000A0008735000887350008873500088735000840
:1000B00087350008873500080B28000887350008B9
:1000C0008735000887350008873500088735000820
:1000D0008735000805350008A10A000889160008C0
:1000E00087350008873500088735000800F002F8DA
:1000F00000F090F80AA090E8000C82448344AAF132
:100100000107DA4501D100F085F8AFF2090EBAE82F
:100110000F0013F0010F18BFFB1A43F0010318473B
:100120004871000068710000103A24BF78C878C197
:10013000FAD8520724BF30C830C144BF04680C60ED
:10014000704700000023002400250026103A28BF35
:1001500078C1FBD8520728BF30C148BF0B60704739
:100160006E2905F02B82702905F07F83662907F040
:100170000C80652907F00980672907F0068061294E
:10018000AFF3008003681B0A28BF41F08001692992
:1001900005F0D881642905F0D581752905F0D28153
:1001A0006F2905F00C83782905F04B83E92905F0C8
:1001B000A782E42905F0A482F52905F0A182EF29A0
:1001C00005F00983F82905F04A830368DB0928BF95
:1001D00041F08001632905F0CE86732905F0D386AE
:1001E000E32905F0DE86F32905F0E3860020704759
:1001F0001FB505F033FF04000020002106F02CFCA1
:10020000401C60600020002106F010FCE0601FBD73
:1002100010B510BD05F0F5FE1146FFF7E9FF00F03F
:100220002FFA05F0D1FF03B4FFF7F2FF03BC03F090
:10023000C7F8000010B53222FE49002002F092FCFF
:10024000FC494878C11700EB11610912A0EB0122AB
:10025000F849097802EB0121F74A1180F549C8787D
:10026000C11700EB11610912A0EB0122F149897855
:1002700002EB0121F14A1180EE494879C11700EBE8
:1002800011610912A0EB0122EA49097902EB01216F
:10029000EB4A1180E749C879C11700EB11610912D7
:1002A000A0EB0122E349897902EB0121E54A1180A3
:1002B000E049487AC11700EB11610912A0EB012255
:1002C000DC49097A02EB0121DF4A1180D949C87A59
:1002D000C11700EB11610912A0EB0122D549897AFF
:1002E00002EB0121D94A1180D249C87CC11700EB29
:1002F00011610912A0EB0122CE49897C02EB012198
:10030000D34A1180CB49487DC11700EB1161091216
:10031000A0EB0122C749097D02EB0121CD4A1180E2
:10032000C449C87DC11700EB11610912A0EB01227D
:10033000C049897D02EB0121C74A1180BD49487E31
:10034000C11700EB11610912A0EB0122B949097E26
:1003500002EB0121C14A1180B649C87EC11700EBEA
:1003600011610912A0EB0122B249897E02EB012141
:10037000BB4A1180AF49487FC11700EB11610912D8
:10038000A0EB0122AB49097F02EB0121B54A1180A4
:10039000A849C87FC11700EB11610912A0EB012227
:1003A000A449897F02EB0121AF4A1180A14991F84C
:1003B0002100C11700EB11610912A0EB01229D4938
:1003C00091F8201002EB0121A84A1180994991F877
:1003D0002300C11700EB11610912A0EB012295491E
:1003E00091F8221002EB0121A14A118010BD10B535
:1003F000002091490880914908805920904908803F
:100400000120964908801E20954908803C20954986
:1004100008801E208B4908803C208B49088063207F
:100420008A4908800120904908801E208F49088051
:100430003C208F4908801E20854908803C20854942
:1004400008806320844908807B490888C11700EB35
:100450001161090A774A117077490888C11700EBC2
:1004600011610912A0EB0121517074490888C1176C
:1004700000EB1161090A917070490888C11700EBFF
:1004800011610912A0EB0121D1706D490888C117D3
:1004900000EB1161090A117169490888C11700EB65
:1004A00011610912A0EB0121517166490888C11739
:1004B00000EB1161090A917162490888C11700EBCC
:1004C00011610912A0EB0121D1715F490888C117A0
:1004D00000EB1161090A11725B490888C11700EB32
:1004E00011610912A0EB0121517258490888C11706
:1004F00000EB1161090A917254490888C11700EB99
:1005000011610912A0EB0121D17251490888C1176C
:1005100000EB1161090A91744D490888C11700EB7D
:1005200011610912A0EB0121D1744A490888C11751
:1005300000EB1161090A117546490888C11700EBE3
:1005400011610912A0EB0121517543490888C117B7
:1005500000EB1161090A91753F490888C11700EB4A
:1005600011610912A0EB0121D1753C490888C1171E
:1005700000EB1161090A117638490888C11700EBB0
:1005800011610912A0EB0121517635490888C11784
:1005900000EB1161090A917631490888C11700EB17
:1005A00011610912A0EB0121D1762E490888C117EB
:1005B00000EB1161090A11772A490888C11700EB7D
:1005C00011610912A0EB0121517727490888C11751
:1005D00000EB1161090A917723490888C11700EBE4
:1005E00011610912A0EB0121D17720490888C117B8
:1005F00000EB1161090A82F820101C490888C11714
:1006000000EB11610912A0EB012182F821101849B9
:100610000888C11700EB1161090A82F822101449F9
:100620000888C11700EB11610912A0EB012182F8C3
:1006300023101FE0F7000020040000200600002027
:10064000080000200A0000200C0000200E000020FE
:1006500016000020180000201A00002010000020C2
:1006600012000020140000201C0000201E000020AA
:10067000200000203222D449002002F084FA10BD6C
:1006800002F034FE01F0EAFE01F08CFE02F0D0F937
:10069000002140F2833002F0EBF841F61F4142F2B4
:1006A0000F7002F085F84FF4165002F098FEC7A0C4
:1006B00002F0E4FE4FF4E13000F048FFC7A002F082
:1006C000DDFE02F041F905E0C8A004F0A9FEC82053
:1006D00002F049FE02F0A3FD0028F5D1C8A004F005
:1006E0009FFEC82002F03FFE05E0CBA004F098FE7C
:1006F000C82002F038FE01F0F2FF0028F5D101F029
:100700006FFE02280DD10221C94803F0CAF84FF448
:10071000FA7002F028FE0221C54803F0C4F8FFF782
:1007200066FEFFF787FD012000F02CFB0020C14989
:10073000088340F28331C04804F0F6FB46E0002015
:1007400001F04EFE01283ED1BA480078C043B949B5
:10075000087008460178B9A002F090FEB54800780C
:1007600080B90020BB490860B24948700A21BA48E4
:1007700000F070FF0020B949088040F28331AE4894
:1007800004F0D2FBAB480078E8B10120A9494870D9
:10079000B04908600A21B24800F05CFF4FF4E16004
:1007A000AE49088000F09BFD40F2833409E0214609
:1007B000A14804F0B9FB4FF47A7002F0B0FD601E5E
:1007C00084B2002CF3DC00BF00F089FDB7E710B560
:1007D000A4490888C11700EB1161090A7A4A11700F
:1007E000A0490888C11700EB11610912A0EB012193
:1007F00051709D490888C11700EB1161090A917079
:1008000099490888C11700EB11610912A0EB012179
:10081000D17096490888C11700EB1161090A11715E
:1008200092490888C11700EB11610912A0EB012160
:1008300051718F490888C11700EB1161090A917144
:100840008B490888C11700EB11610912A0EB012147
:10085000D17188490888C11700EB1161090A11722A
:1008600084490888C11700EB11610912A0EB01212E
:10087000517281490888C11700EB1161090A917210
:100880007D490888C11700EB11610912A0EB012115
:10089000D1727A490888C11700EB1161090A917475
:1008A00076490888C11700EB11610912A0EB0121FC
:1008B000D17473490888C11700EB1161090A1175D9
:1008C0006F490888C11700EB11610912A0EB0121E3
:1008D00051756C490888C11700EB1161090A9175BF
:1008E00068490888C11700EB11610912A0EB0121CA
:1008F000D17565490888C11700EB1161090A1176A5
:1009000061490888C11700EB11610912A0EB0121B0
:1009100051765E490888C11700EB1161090A91768A
:100920005A490888C11700EB11610912A0EB012197
:10093000D17657490888C11700EB1161090A117770
:1009400053490888C11700EB11610912A0EB01217E
:10095000517750490888C11700EB1161090A917756
:100960004C490888C11700EB11610912A0EB012165
:10097000D17749490888C11700EB1161090A82F84B
:10098000201045490888C11700EB11610912A0EB3E
:10099000012182F8211041490888C11700EB11613B
:1009A000090A82F822103D490888C11700EB11613D
:1009B0000912A0EB012182F8231032220249002003
:1009C00002F0E1F810BD0000F700002075617274BC
:1009D000315F696E6974206F6B0D0A007561727406
:1009E000335F696E6974206F6B0D0A0044533138B0
:1009F00042323020706362204572726F720D0A00BD
:100A00004453313842323020706F7765722045721E
:100A1000726F720D0A0000004453313842323020A8
:100A20006C69676874204572726F720D0A0000006D
:100A300000080140C4000020000400404C696768C1
:100A4000745F50574D5F7374617465203D20256459
:100A50000D0A0000B0012242420000208A0000205E
:100A60004C000020040000200600002008000020A8
:100A70000A0000200C0000200E00002016000020BC
:100A8000180000201A000020100000201200002092
:100A9000140000201C0000201E0000202000002068
:100AA00010B540F22551134803F02EFB98B11148C0
:100AB00003F0AAFAC4B210481049096844540F4818
:100AC0000068401C0D49086008460068B0F5806F5A
:100AD00001D30020086010BD704700BFFEE700BFD3
:100AE000FEE700BFFEE700BFFEE7704770477047B4
:100AF00070470000004400403001002094000020B6
:100B00000CB50020019000906C48006840F48030E3
:100B10006A49086000BF6948006800F4003000902E
:100B20000198401C0190009818B90198B0F5A06F89
:100B3000F1D16248006800F4003010B1012000904B
:100B400001E0002000900098012843D15C48006833
:100B500040F010005A4908600846006820F0030081
:100B600008600846006840F002000860534840688A
:100B7000524948600846406848600846406840F46A
:100B8000806048600846406820F47C104860084651
:100B9000406840F4E81048600846006840F0807003
:100BA000086000BF4548006800F000700028F9D0D8
:100BB0004248406820F003004049486008464068C9
:100BC00040F00200486000BF3C48406800F00C0064
:100BD0000828F9D10CBD10B5FFF792FF10BD10B574
:100BE0003648006840F00100344908600846406813
:100BF0003449084031494860084600683249084095
:100C00002E4908600846006820F4802008600846E5
:100C1000406820F4FE0048604FF41F008860FFF732
:100C2000DAFF4FF000602949086010BD10B50021BF
:100C300000200022214B5B6803F00C0121B1042944
:100C400006D0082928D107E0214B224C236027E059
:100C50001F4B204C236023E0184B5B6803F470109B
:100C6000164B5B6803F48032022303EB904022B9F9
:100C7000194B4343174C23600DE0104B5B6803F4A2
:100C8000003323B1144B4343124C236003E0104B59
:100C90004343104C236003E00D4B0E4C236000BF18
:100CA00000BF064B5B68C3F303130C4CE15C094BBC
:100CB0001B68CB40074C236010BD000000100240B1
:100CC000002002400000FFF8FFFFF6FE08ED00E004
:100CD00000127A002400002000093D0028000020B6
:100CE00070B50246002317E0002010E052F82060A3
:100CF000451C52F82550AE4208DA451C52F82540F2
:100D000052F8206042F8256042F82040401CCD1A7D
:100D10006D1E8542EADC5B1C4D1E9D42E4DC70BD0D
:100D200070B5044640F28330001B81B2FE4804F0E7
:100D3000F7F840F6B830604340F2833190FBF1F6AB
:100D4000304606F0BFF80546284606F09BF880B20C
:100D500070BD70B5044640F28330001B81B2F2488A
:100D600004F0E0F840F6B830604340F2833190FB85
:100D7000F1F6304606F0A6F80546284606F082F859
:100D800080B270BD10B504460020E8494870088163
:100D90004881012C03D10A21E54800F05BFC10BD1D
:100DA00010B501F0B9FCE14988821020E149487191
:100DB000DE48808A000A8871DC48007DC8710821FD
:100DC000DC4800F047FC02F013F9D849C881212023
:100DD000D8494871D548C089000A8871D348807BBA
:100DE000C8710821D34800F035FC02F033FACF492E
:100DF00048822020CF494871CC48408A000A887137
:100E0000CA48807CC8710821CA4800F023FC10BD84
:100E100010B5FFF70FFAC548808AC749098888428C
:100E200001DD012000E00020C449098888421CDC63
:100E300040F2BD10FFF78DFF4FF47A70BB49C882B6
:100E40001120BC494871B948C08A000A8871B74866
:100E5000807DC8710821B74800F0FCFB0A2002F031
:100E600082FAB7A002F00AFB5EE0B048808ABD4972
:100E7000098801EB8101B0EB410F01DD012000E0A9
:100E80000020B949098801EB8101B0EB410F1CDC5E
:100E90004FF43270FFF75DFF4FF4FA60A349C88248
:100EA0001120A4494871A148C08A000A88719F484E
:100EB000807DC87108219F4800F0CCFB0A2002F019
:100EC00052FAAAA002F0DAFA2EE09848808AB049D5
:100ED000098801EB8101B0EB410F01DD012000E049
:100EE0000020AC49098801EB8101B0EB410F1BDC0C
:100EF00040F27A30FFF72DFF40F6B8308B49C882B8
:100F000011208C4948718948C08A000A8871874835
:100F1000807DC8710821874800F09CFB0A2002F000
:100F200022FA9DA002F0AAFA8048C089A349098844
:100F300001EB8101B0EB410F01DD012000E0002059
:100F40009F49098801EB8101B0EB410F1CDC40F2A5
:100F5000BD10FFF7E5FE4FF47A7074490882222035
:100F6000744948717148008A000A88716F48007C92
:100F7000C87108216F4800F06DFB0A2002F0F3F9F8
:100F800090A002F07BFA5EE06848C0899749098822
:100F900001EB8101B0EB410F01DD012000E00020F9
:100FA0009349098801EB8101B0EB410F1CDC4FF440
:100FB0003270FFF7B5FE4FF4FA605C4908822220D8
:100FC0005C4948715948008A000A88715748007C7A
:100FD000C8710821574800F03DFB0A2002F0C3F910
:100FE00084A002F04BFA2EE05048C0898B49098852
:100FF00001EB8101B0EB410F01DD012000E0002099
:101000008749098801EB8101B0EB410F1BDC40F2FD
:101010007A30FFF785FE40F6B83044490882222036
:10102000444948714148008A000A88713F48007C61
:10103000C87108213F4800F00DFB0A2002F093F927
:1010400078A002F01BFA10BD2DE9F0478146374821
:10105000A0F81890008B002864D0322804D06428AF
:1010600031D065285FD142E0FFF7E4F87748008887
:1010700005F069FD0746764A764B05F077FD054693
:1010800005F000FD82465146734805F033FF0746E0
:10109000714905F0FBFF064605F0F4FE85B22946CE
:1010A000214803F041FF2148008B6C490880012052
:1010B0006B490860FF201D4908700846018B69A034
:1010C00002F0DCF908E10021174803F02DFF174872
:1010D000008B62490880012061490860FF201349A4
:1010E00008700846018B65A002F0C8F9F4E040F2F0
:1010F000833409E021460C4803F016FF4FF47A7060
:1011000002F00DF9601E84B2002CF3DC0748008B5E
:1011100052490880012052490860FF2003490870A5
:101120000846B7E0BCE0D6E000040040C400002060
:1011300042000020600000201C000020160000205B
:101140002D2D2DB9E2D1A7B2D6B7E7CBD9BFD8D6CE
:10115000C63A20454C74656D705F4C3D313030307F
:101160000D0A00001E000020180000202D2D2DB9B2
:10117000E2D1A7B2D6B7E7CBD9BFD8D6C63A204579
:101180004C74656D705F4D3D323030300D0A00009B
:10119000200000201A0000202D2D2DB9E2D1A7B289
:1011A000D6B7E7CBD9BFD8D6C63A20454C74656DC3
:1011B000705F483D333030300D0A000010000020D1
:1011C0000A0000202D2D2D2D2D2DB5E7D4B4B7E725
:1011D000CBD9BFD8D6C63A202020454274656D7061
:1011E0005F4C203130303020200D0A0012000020EA
:1011F0000C0000202D2D2D2D2D2DB5E7D4B4B7E7F3
:10120000CBD9BFD8D6C63A202020454274656D7030
:101210005F4D2032303030200D0A000014000020D5
:101220000E0000202D2D2D2D2D2DB5E7D4B4B7E7C0
:10123000CBD9BFD8D6C63A202020454274656D7000
:101240005F482033303030200D0A000008000020B5
:101250007B14AE47E17A843F00C060446800002000
:10126000B00122426C63642E4C696768745F50570A
:101270004D3A202564200D0A000000006C63642EA6
:101280004C696768745F50574D3A20256420200DE3
:101290000A000000018BAFF21C0002F0EFF81BE027
:1012A000002086498881864908608449087040F298
:1012B0008331844803F038FE8048008B82490880DF
:1012C0007E48018BAFF24C0002F0D8F80A217F482B
:1012D00000F0C0F900E000BF00BFBDE8F08710B526
:1012E000764880891E2803DC744880895A2806D1F4
:1012F0001E20724988810821754800F0ABF97548B5
:101300000088492190FBF1F06C49488008464088EC
:1013100071490988884221D0684840886E49088010
:10132000FEF788FF6D480088401C6C49088008461D
:101330000088000A6A49887068480078C8700846C2
:101340008178022001F0A4FB6548C178032001F0F8
:101350009FFB6248018863A002F090F857484078EC
:10136000012844D16448008864490988401A84B23D
:10137000012C05D100205249086003204F494870D4
:101380008CB33C2094FBF0F04C4908813C2094FB4A
:10139000F0F100FB11404949488112205849487139
:1013A00046480089000A88714448007AC8710821BB
:1013B000534800F04FF91320514948713F48408984
:1013C000000A88713D48807AC87108214C4800F0B5
:1013D00041F93A48008B3C490988884203D0374993
:1013E000088BFFF731FE0E21464800F033F93348F1
:1013F0004078032837D10020304948700A214248FC
:1014000000F028F90E21414800F024F940F2833120
:101410002C4803F089FDFEF70DFF2848007B3C496E
:10142000097808443B4908700878C11700EB11613E
:1014300009122B4A117037490878C11700EB116166
:101440000912A0EB0121517010460178002001F033
:101450001FFB23484178012001F01AFB2D48017839
:101460002DA002F00BF8FFF79BFC36480078401ED9
:101470003449087017480088052190FBF1F201FB00
:10148000120050B92F48007838B9FFF7C1FC01208D
:101490002C490870C82001F066FF0E4800886421BE
:1014A00090FBF1F201FB120030B90448407818B902
:1014B0000A21254800F0CEF810BD0000C40000202D
:1014C000B001224200040040680000204C000020CF
:1014D0007E00002000000020880000200600002080
:1014E000F700002045626F6172645F74696D653A50
:1014F00020256420200D0A008A0000200200002020
:10150000600000206A0000205600002074000020C7
:10151000040000208C000020B1A3B4E6B5C6CAB90F
:10152000D3C3CAB1B3A4B5BD454550524F4DD6D073
:10153000206C696768745F74696D653A2025642062
:10154000200D0A00860000203800002010B586B06B
:1015500004464FF4A06002F029F80121880402F04B
:10156000BCFB0121082002F0ABFBFE4802F00CFCA2
:101570004FF48060ADF8140003208DF81600182099
:101580008DF8170005A9F84802F0DEF84FF4006066
:10159000ADF8140004208DF8170005A9F24802F0F8
:1015A000D3F801940020ADF80800ADF80A00ADF8BA
:1015B0000C00ADF810000C20ADF80E0001A9E948B0
:1015C00002F025FC2021E74802F095FD012240F2BF
:1015D0002551E44802F0B3FC27208DF800000020DC
:1015E0008DF801008DF8020001208DF80300684697
:1015F00001F0E1FF0121DB4802F095FC06B010BDCF
:101600000FB438B505A80090D848009A049903F0A3
:10161000F5FE00200090D54803F00EFF054600BF00
:10162000D048008800F040000028F9D000240CE0E9
:10163000CE48005DCB49091D088000BFC94800881D
:1016400000F040000028F9D0641CAC42F0D338BC54
:101650005DF814FB10B5024600BFC24B1B8803F0B7
:101660004003002BF9D000200BE0135CBD4C241D7F
:10167000238000BFBB4B1B8803F04003002BF9D035
:10168000401C8842F1DB10BD70B540F22551B548D1
:1016900002F03AFD88B1B34802F0B6FCC5B25A2D4B
:1016A00002D10020B2490860B248B14909684554E6
:1016B000AF480068401CAE490860AE4800785A2820
:1016C00006D0AC484078A52802D00020A849086080
:1016D000A84800785A287DD1A64880780628FAD1F3
:1016E000A34800680928F6D1A1480678002405E03F
:1016F000A048005DA0490855601CC4B2B442F7DBA5
:1017000000209B4908609C484079142809D19A48D8
:10171000007A9A49888100209949088001209749D8
:10172000487095484079162816D10520934988813C
:1017300014209449487191488089000A88718F4823
:10174000007BC87108218F48FFF784FF00208C4977
:10175000088001208949487087484079192807D1B5
:1017600086484078012803D18348007A834908835A
:1017700081484079152811D10020814908807F488F
:101780008089C0EB00104FF6FF7101EA80007E49AE
:1017900008807948007A401C784908837648407967
:1017A00025282AD17448007AF32826D1FEF742FD75
:1017B00017207449487175480088000A8871734879
:1017C0000078C87108216F48FFF744FF23206D4956
:1017D000487100E015E36E480088000A88716C4883
:1017E0000078C87108216748FFF734FF684802880D
:1017F0006648018867A001F041FE5F4840794728AC
:1018000014D1634800883C2190FBF1F05B4988804B
:1018100023205C49487159488088000A88715748DC
:101820000079C87108215748FFF714FF52484079E2
:1018300045282CD10020564908800888C11700EBA4
:101840001161090A5F4A117051490888C11700EBFC
:1018500011610912A0EB01215170022259490020A7
:1018600001F091F94A4800883C2190FBF1F043498E
:10187000888023204349487140488088000A887145
:101880003E480079C87108213E48FFF7E3FE3A4818
:101890004079462822D100203C490880084600882B
:1018A000000A4849887039480078C870084681782D
:1018B000022001F0EDF84348C178032001F0E8F878
:1018C00017203049487131480088000A88712F4834
:1018D0000078C87108212B48FFF7BCFE26484079E4
:1018E000482802D138A001F0C9FD23484079492891
:1018F00002D13CA001F0C2FD1F48407951282FD1F0
:10190000FEF798FC52201F4948713C480088000AA5
:1019100088713A480078C87108211A48FFF79AFE82
:1019200053201849487136480088000A88713448A5
:101930000078C87108211348FFF78CFE5420114924
:10194000487130480088000A88712E480078C871B4
:1019500008210C48FFF77EFE71200A49487153E0C8
:10196000AFE0000000480040000C0140300D0020B6
:101970009C0000203009002030110020C40000200D
:1019800002000020600000208A00002006000020E5
:1019900004000020B2E9BFB42D2D2D45626F6172A5
:1019A000645F74696D653A2025642020456C696721
:1019B00068745F74696D653A2025642D2D2D0D0ABC
:1019C00000000000F7000020BDF8C8EBBFD8D6C665
:1019D000B0E5CAB9D3C3CAB1B3A4C9E8D6C32D2DE3
:1019E0002D0D0A00BDF8C8EB50574DC6B5C2CAC987
:1019F000E8D6C32D2D2D0D0A000000000A0000209E
:101A00000C0000200E000020FE480088000A8871AB
:101A1000FC480078C8710821FB48FFF71BFE7220C4
:101A2000F9494871F9480088000A8871F748007838
:101A3000C8710821F448FFF70DFE7320F249487180
:101A4000F3480088000A8871F1480078C8710821BD
:101A5000ED48FFF7FFFD5520EB49487103208871E1
:101A6000E820C8710821E848FFF7F4FD5620E64950
:101A7000487107208871D020C8710821E248FFF71B
:101A8000E9FD5720E04948710B208871B820C871E2
:101A90000821DD48FFF7DEFDDEA001F0EFFCDC48A9
:101AA0000388DA480288D7480188E0A001F0E6FC04
:101AB000E9480388E9480288E9480188E9A001F07B
:101AC000DDFCF2484079522824D1F049C979081246
:101AD000C11700EB11610912ED4A9171EB49087AC7
:101AE000C11700EB11610912A0EB0121D171104661
:101AF0008179062000F0CCFFE548C179072000F08D
:101B0000C7FFE348C2798179E2A001F0B7FCEAA0FF
:101B100001F0B4FCDD484079532824D1DB49C97970
:101B20000812C11700EB11610912D94A1172D74985
:101B3000087AC11700EB11610912A0EB0121517263
:101B40001046017A082000F0A3FFD148417A09200D
:101B500000F09EFFCE48427A017ADBA001F08EFCB5
:101B6000E2A001F08BFCC9484079542824D1C74930
:101B7000C9790812C11700EB11610912C44A9172A8
:101B8000C249087AC11700EB11610912A0EB0121CB
:101B9000D1721046817A0A2000F07AFFBC48C17ADF
:101BA0000B2000F075FFBA48C27A817AD3A001F009
:101BB00065FCDBA001F062FCB4484079712824D1B7
:101BC000B249C9790812C11700EB11610912B04A74
:101BD0001176AE49087AC11700EB11610912A0EB2A
:101BE000012151761046017E182000F051FFA848CF
:101BF000417E192000F04CFFA548427E017ECCA01A
:101C000001F03CFCACA001F039FCA04840797228FE
:101C100024D19E49C9790812C11700EB116109123C
:101C20009B4A91769949087AC11700EB1161091214
:101C3000A0EB0121D1761046817E1A2000F028FF0A
:101C40009348C17E1B2000F023FF9148C27E817E15
:101C5000C0A001F013FCA5A001F010FC8B48407956
:101C6000732824D18949C9790812C11700EB116181
:101C70000912874A11778549087AC11700EB11616B
:101C80000912A0EB012151771046017F1C2000F0C2
:101C9000FFFE7F48417F1D2000F0FAFE7C48427F16
:101CA000017FB5A001F0EAFB9DA001F0E7FB7748BA
:101CB000407961287ED1FEF7BDFA62205249487111
:101CC000B6480088000A8871B4480078C8710821B5
:101CD0004D48FFF7BFFC63204B494871B04800886E
:101CE000000A8871AE480078C87108214648FFF79D
:101CF000B1FC642044494871AA480088000A8871F0
:101D0000A8480078C87108213F48FFF7A3FC682065
:101D10003D494871A4480088000A8871A2480078AB
:101D2000C87108213848FFF795FC69203649487189
:101D30009E480088000A88719C480078C871082174
:101D40003148FFF787FC70202F4948719848008878
:101D5000000A887196480078C87108212A48FFF760
:101D600079FC65202849487103208871E820C871F2
:101D700008212548FFF76EFC66202349487107209B
:101D80008871D020C87108211F48FFF763FC6720C5
:101D90001D4948710B208871B820C87108211A4864
:101DA000FFF758FC83A001F069FB814803887F4856
:101DB000028800E00DE07C48018884A001F05EFB11
:101DC0007848038876480288744801888AA001F020
:101DD00055FB2E484079622812D12C49C979081246
:101DE000C11700EB11610912294A91742749087A39
:101DF000C11700EB11610912A0EB0121D1740FE1B1
:101E000021E13AE2100000206000002012000020D2
:101E100014000020BDF8C8EBB5E7D7D3B2D6CEC2C8
:101E2000B6C8C9E8D6C32D2D2D0D0A0045427465EC
:101E30006D705F4C313D25642020454274656D70A6
:101E40005F4D313D25642020454274656D705F48CB
:101E5000313D25640D0A00000E0000200C0000201A
:101E60000A000020454274656D705F4C3D2564207A
:101E700020454274656D705F4D3D256420204542CC
:101E800074656D705F483D25640D0A0030110020B7
:101E9000F700002054696D5F4E756D5B365D3D2522
:101EA00064202054696D5F4E756D5B375D3D256420
:101EB00020200D0A00000000454274656D705F4CE3
:101EC0002E2E2E0D0A00000054696D5F4E756D5B5D
:101ED000385D3D2564202054696D5F4E756D5B391A
:101EE0005D3D256420200D0A000000004542746518
:101EF0006D705F4D2E2E2E0D0A00000054696D5F2F
:101F00004E756D5B31305D3D2564202054696D5FF9
:101F10004E756D5B31315D3D256420200D0A00005A
:101F2000454274656D705F482E2E2E0D0A0000002C
:101F300054696D5F4E756D5B32345D3D25642020C4
:101F400054696D5F4E756D5B32355D3D25642020B3
:101F50000D0A000054696D5F4E756D5B32365D3D54
:101F60002564202054696D5F4E756D5B32375D3D91
:101F7000256420200D0A000054696D5F4E756D5B6D
:101F800032385D3D2564202054696D5F4E756D5B70
:101F900032395D3D256420200D0A00001600002026
:101FA000180000201A0000201C0000201E00002045
:101FB00020000020BDF8C8EBB9E2D1A7B2D6CEC24E
:101FC000B6C8C9E8D6C32D2D2D0D0A00454C746541
:101FD0006D705F4C313D25642020454C74656D70FB
:101FE0005F4D313D25642020454C74656D705F4820
:101FF000313D25640D0A0000454C74656D705F4CE1
:102000003D25642020454C74656D705F4D3D256411
:102010002020454C74656D705F483D25640D0A00B5
:102020001046817C122000F033FD9448C17C1320BF
:1020300000F02EFD9148C27C817C91A001F01EFA37
:1020400098A001F01BFA9B484079632824D1994954
:10205000C9790812C11700EB11610912874A11757D
:102060009449087AC11700EB11610912A0EB012114
:1020700051751046017D142000F00AFD7F48417D16
:10208000152000F005FD7D48427D017D8AA001F00C
:10209000F5F992A001F0F2F986484079642824D13C
:1020A0008449C9790812C11700EB11610912734AFA
:1020B00091758049087AC11700EB11610912A0EBF4
:1020C0000121D1751046817D162000F0E1FC6B489E
:1020D000C17D172000F0DCFC6848C27D817D83A0B3
:1020E00001F0CCF98AA001F0C9F97248407968285A
:1020F00024D17049C9790812C11700EB1161091286
:102100005E4A91776B49087AC11700EB1161091299
:10211000A0EB0121D1771046817F1E2000F0B8FC92
:102120005648C17F1F2000F0B3FC5448C27F817F16
:102130007BA001F0A3F95BA001F0A0F95D48407914
:1021400069282AD15B49C9790812C11700EB1161CE
:1021500009124A4A82F820105649087AC11700EB42
:1021600011610912A0EB012182F82110104690F8AC
:102170002010202000F08CFC404890F821102120F5
:1021800000F086FC3D4890F8212090F820106DA0CA
:1021900001F074F951A001F071F9464840797028B6
:1021A0002AD14449C9790812C11700EB11610912FB
:1021B000324A82F822103F49087AC11700EB1161B8
:1021C0000912A0EB012182F82310104690F822108A
:1021D000222000F05DFC294890F82310232000F015
:1021E00057FC264890F8232090F822105EA001F0BA
:1021F00045F947A001F042F92E484079502824D1F2
:102200002C48007A614908802A49C9790812C11707
:1022100000EB11610912194A11712649087AC11798
:1022200000EB11610912A0EB0121517110460179F7
:10223000042000F02DFC11484179052000F028FC15
:102240005248018852A001F019F91A48407925280E
:1022500013D11848007AF4280FD1FDF7EBFF502076
:102260004F49487149480088000A887147480078FA
:10227000C87108214A48FFF7EDF970BDF70000204A
:1022800054696D5F4E756D5B31383D256420205477
:10229000696D5F4E756D5B31395D3D256420200DA4
:1022A0000A000000454C74656D705F4C2E2E2E0D9B
:1022B0000A0000003011002054696D5F4E756D5B9F
:1022C00032303D2564202054696D5F4E756D5B3260
:1022D000315D3D256420200D0A000000454C7465E9
:1022E0006D705F4D2E2E2E0D0A00000054696D5F3B
:1022F0004E756D5B32323D2564202054696D5F4E12
:10230000756D5B32335D3D256420200D0A000000B1
:10231000454C74656D705F482E2E2E0D0A0000002E
:1023200054696D5F4E756D5B33305D3D25642020D3
:1023300054696D5F4E756D5B33315D3D25642020C2
:102340000D0A000054696D5F4E756D5B33325D3D63
:102350002564202054696D5F4E756D5B33335D3DA0
:10236000256420200D0A000054696D5F4E756D5B79
:1023700033345D3D2564202054696D5F4E756D5B7F
:1023800033355D3D256420200D0A00000800002043
:1023900050574D5F5345543D25642E2E2E0D0A0097
:1023A0006000002008B50121042001F089FC012112
:1023B000274801F09AFA1020ADF8000048208DF867
:1023C00003006946234801F0BFF92020ADF8000062
:1023D00048208DF8030069461E4801F0B5F908BD94
:1023E00010B5044614B101201B4908701A48007842
:1023F000E8B11021174801F03AFA20B12021154820
:1024000001F035FA98B90A2000F0ADFF002012491A
:10241000087010210F4801F02AFA08B9012010BDF8
:1024200020210C4801F023FA78B90220F7E71021A7
:10243000084801F01CFA012807D12021054801F0C5
:1024400016FA012801D1044908700020E7E70000CE
:102450000002300000080140A000002008B5012162
:10246000142001F02DFC0220ADF8000010208DF8A2
:10247000030003208DF8020069462F4801F064F93B
:1024800002212D4801F00FFA4FF4C050ADF80000C2
:1024900069462A4801F058F94FF4C051274801F025
:1024A00002FA4FF48060ADF8000048208DF8030078
:1024B0006946224801F048F908BD2DE9F04104467B
:1024C000254600201E4908604FF4FA7000F04BFFCB
:1024D00005F00107002623E0012F0ED10120184945
:1024E00008604FF4167000F01AFF00201549C1F87B
:1024F000AC01C82000F013FF0DE001201049086076
:10250000C82000F00CFF00200E49C1F8AC014FF4C8
:10251000167000F004FF6D1005F00107701CC6B2C4
:10252000082ED9DB0120064908604FF47A7000F0CC
:102530001AFFBDE8F08100000008014000100140D2
:10254000AC0122420000224210B59548406820F0BC
:10255000F000934948600846406840F03000486009
:1025600000209049086040F2EE2000F0D8FE0120E3
:102570008D49C1F8A4010F2000F0D1FE10BD10B5A7
:1025800000248748406820F0F000854948600846EC
:10259000406840F08000486004E0601CC4B2012044
:1025A00000F0BDFE7F488038006808B1C82CF4DB1D
:1025B000C82C01DB012010BD002404E0601CC4B263
:1025C000012000F0ACFE77488038006808B9F02C94
:1025D000F4DBF02C01DB0120EDE70020EBE710B588
:1025E0006F48406820F0F0006D4948600846406838
:1025F00040F03000486000206A490860022000F086
:102600008EFE01206849C1F8A4016548406820F0A9
:10261000F000634948600846406840F08000486028
:102620000C2000F07CFE5F488038006808B101246F
:1026300000E00024322000F072FE204610BD70B58C
:102640000026012508E0FFF7CAFF0446E00140EA42
:102650006600C6B2681CC5B2082DF4DD304670BDF8
:1026600070B504464E48406820F0F0004C49486080
:102670000846406840F030004860012520E004F042
:10268000010664106EB1002046490860022000F087
:1026900046FE01204449C1F8A4013C2000F03FFE61
:1026A0000CE000203F4908603C2000F038FE01208B
:1026B0003D49C1F8A401022000F031FE681CC5B2FA
:1026C000082DDCDD70BD10B5FFF73EFFFFF757FFAB
:1026D000CC20FFF7C5FF4420FFF7C2FF10BD08B5AF
:1026E0000121102001F0ECFA4FF40070ADF8000069
:1026F00010208DF8030003208DF802006946284859
:1027000001F022F84FF40071254801F0CAF8FFF7F4
:102710001BFFFFF734FF08BD2DE9F84FFFF7D3FF8C
:10272000FFF712FFFFF72BFFCC20FFF799FFBE202A
:10273000FFF796FFFFF783FF8346FFF780FF04460E
:10274000072C08DDE043C4B26FEA0B0000F0FF0B7A
:102750004FF0000A01E04FF0010AA1464FEA0920BC
:102760000FFA80F909EB0B000FFA80F9484604F0E4
:10277000A9FB009004F0F8FA074600220B4B04F086
:10278000F5F9054604F0B0F90FFA80F9BAF1000F37
:1027900002D04846BDE8F88FC9F1000000B2F9E761
:1027A00000100140A4012242000022420000E43F48
:1027B0007FB505460C460121042001F08EFAADF8E4
:1027C0000850ADF804400020ADF80A00ADF806004E
:1027D00001A9234801F0B0FD01221146204802F072
:1027E00022F91E208DF8000000208DF80100032042
:1027F0008DF8020001208DF80300684600F0DBFE32
:102800000121174802F0F4F87FBD10B501211448EA
:1028100002F0B7FB18B30121114802F0C3FB1148C5
:102820000088401C0F490880084600884EF6602149
:10283000884202DD00200B4908800B4840780128BF
:102840000DD10A480088401C0849088008460088C5
:102850004EF66021884202DD00200449088010BD48
:102860000008004000000020C400002002000020FA
:1028700030B589B005460C460121022001F02DFA41
:1028800001210C2001F01CFA8020ADF82000182056
:102890008DF8230003208DF8220008A9274800F0B6
:1028A00053FF0120ADF8200008A9254800F04CFF97
:1028B0004020ADF8200008A9204800F045FFADF801
:1028C0001850ADF814400020ADF81A00ADF816000D
:1028D00005A91C4801F030FD7020ADF8040001206E
:1028E000ADF806000020ADF80A00ADF80C0001A913
:1028F000144801F05EFD01A9124801F09CFD01A9F8
:10290000104801F0E5FD01210E4802F07DF8082194
:102910000C4802F09DF908210A4802F0A2F90821AA
:10292000084802F0ABF90121064802F061F90121E3
:10293000044802F05DF809B030BD00000008014015
:10294000000C01400004004000B587B001214FF4A5
:10295000047001F0B5F94FF4004001F015F90320BF
:10296000ADF8040000208DF8070001A92E4800F002
:10297000EBFE2E4802F01AFB002002908DF80C00AE
:102980008DF80D004FF46020049000200590012088
:102990008DF8180002A9254802F02FFB01212348D9
:1029A00002F057FB214802F076FB00BF1F4802F0FF
:1029B00077FB0028FAD11D4802F07CFB00BF1B48C2
:1029C00002F07DFB0028FAD107B000BD10B5044627
:1029D000072301222146154802F0A7FB01211348D5
:1029E00002F077FB00BF0221104802F0E3FC002850
:1029F000F9D00E4802F000FC10BD2DE9F041074669
:102A00000C460025002608E03846FFF7DFFF0544A6
:102A1000052000F0A8FC701CC6B2A642F4DBB5FB92
:102A2000F4F080B2BDE8F0810010014000240140C4
:102A300010B500F0BBF810BD70B50446002600F0DC
:102A4000CFF82546E11704EB11610912A02202EB31
:102A50004101C8B200F07CF900F007F9E11704EB7E
:102A600011610912A4EB0121C8B200F071F900F064
:102A7000FCF800F0B5F8A12000F06AF900F0F5F8D4
:102A8000002000F094F9064600F0CEF8304670BD04
:102A900070B504460E4600F0A3F82546E11704EB96
:102AA00011610912A02202EB4101C8B200F050F9F5
:102AB00000F0DBF8E11704EB11610912A4EB01212E
:102AC000C8B200F045F900F0D0F8304600F040F907
:102AD00000F0CBF800F0A8F80A2000F044FC70BD2C
:102AE0002DE9F04105460E461746002409E0E200B4
:102AF00026FA02F2D1B22A1990B2FFF7C9FF601C80
:102B0000C4B2BC42F3DBBDE8F0812DE9F0410746D9
:102B10000C460026002509E036023919491B491EDA
:102B200088B2FFF789FF0644681CC5B2A542F3DBF3
:102B30003046BDE8F08110B5FF20FFF77DFF044669
:102B4000552C01D1002010BD5521FF20FFF7A0FF1B
:102B5000FF20FFF771FF0446552C01D10020F2E75A
:102B60000120F0E770B506460C46154608E03046F1
:102B7000721C96B2FFF760FF04F8010B681E85B265
:102B8000002DF4D170BD70B505460C46164606E022
:102B900021782846FFF77CFF681C85B2641C301E34
:102BA000A6F101018EB2F3D170BD000008B501217C
:102BB000082001F085F84FF44070ADF800001020B7
:102BC0008DF8030003208DF802006946914800F05B
:102BD000BBFD0120904908609049C1F8A40108BDDF
:102BE00010B58C48001D006820F0F0008949091DCF
:102BF00008600846006840F03000086001208649FF
:102C0000091D08608549C1F8A001042000F087FB78
:102C100000208149091D0860042000F080FB00208D
:102C20007E49C1F8A00110BD10B57A48001D0068AA
:102C300020F0F0007749091D08600846006840F060
:102C4000300008600020744908607449C1F8A4018C
:102C5000042000F064FB01206F4908606F49C1F84F
:102C6000A401042000F05BFB10BD10B500246948EE
:102C7000001D006820F0F0006649091D0860084644
:102C8000006840F08000086001206349091D086069
:102C900000F045FB01206149C1F8A00100F03FFBB5
:102CA00007E0601CC4B2FA2C03DDFFF7BDFF012072
:102CB00010BD59487C3800680028F2D15649086098
:102CC00000BFF5E710B50020534908605148001DCA
:102CD000006820F0F0004F49091D086008460068B0
:102CE00040F03000086000204C49C1F8A4010220E7
:102CF00000F015FB012048490860022000F00FFB9E
:102D000000204649C1F8A00110BD10B5002042497D
:102D100008604048001D006820F0F0003D49091D92
:102D200008600846006840F03000086001203B4918
:102D3000C1F8A401022000F0F2FA0120364908602F
:102D4000022000F0ECFA00203449C1F8A00110BDC7
:102D500070B504462F48001D006820F0F0002D4992
:102D6000091D08600846006840F030000860002037
:102D700029490860002517E0E0092749091D086076
:102D80006006040E022000F0CAFA01202349C1F8AF
:102D9000A001022000F0C3FA00201F4908600220B1
:102DA00000F0BDFA681CC5B2082DE5DB70BD70B53A
:102DB000054600241748001D006820F0F000154962
:102DC000091D08600846006840F080000860002681
:102DD00016E0002010490860022000F0A0FA01204F
:102DE0000E49C1F8A0016006040E0B487C3800684B
:102DF00008B1601CC4B2012000F091FA701CC6B288
:102E0000082EE6DB15B9FFF780FF01E0FFF75AFF58
:102E1000204670BD000C0140A0812142008021426B
:102E200010B59548406820F00F0093494860084667
:102E3000406840F00300486000209049086040F27C
:102E4000EE2000F06CFA01208D49C1F8A0010F209E
:102E500000F065FA10BD10B500248748406820F0E6
:102E60000F00854948600846406840F00800486007
:102E700004E0601CC4B2012000F051FA7F488038A1
:102E8000006808B1C82CF4DBC82C01DB012010BDA0
:102E9000002404E0601CC4B2012000F040FA77482E
:102EA0008038006808B9F02CF4DBF02C01DB01203D
:102EB000EDE70020EBE710B56F48406820F00F0009
:102EC0006D4948600846406840F0030048600020B3
:102ED0006A490860022000F022FA01206849C1F81E
:102EE000A0016548406820F00F006349486008462B
:102EF000406840F0080048600C2000F010FA5F487D
:102F00008038006808B1012400E00024322000F07D
:102F100006FA204610BD70B50026012508E0FFF72F
:102F2000CAFF0446E00140EA6600C6B2681CC5B2AA
:102F3000082DF4DD304670BD70B504464E4840683B
:102F400020F00F004C4948600846406840F00300FC
:102F50004860012520E004F0010664106EB10020F5
:102F600046490860022000F0DAF901204449C1F81E
:102F7000A0013C2000F0D3F90CE000203F4908609C
:102F80003C2000F0CCF901203D49C1F8A00102200D
:102F900000F0C5F9681CC5B2082DDCDD70BD10B5A8
:102FA000FFF73EFFFFF757FFCC20FFF7C5FF442098
:102FB000FFF7C2FF10BD08B50121102000F080FE10
:102FC0004FF48070ADF8000010208DF8030003204E
:102FD0008DF802006946284800F0B6FB4FF4807176
:102FE000254800F05EFCFFF71BFFFFF734FF08BD2C
:102FF0002DE9F84FFFF7D3FFFFF712FFFFF72BFF85
:10300000CC20FFF799FFBE20FFF796FFFFF783FF65
:103010008346FFF780FF0446072C08DDE043C4B277
:103020006FEA0B0000F0FF0B4FF0000A01E04FF0D9
:10303000010AA1464FEA09200FFA80F909EB0B00BB
:103040000FFA80F9484603F03DFF009003F08CFE34
:10305000074600220B4B03F089FD054603F044FDB3
:103060000FFA80F9BAF1000F02D04846BDE8F88F98
:10307000C9F1000000B2F9E700100140A0012242AE
:10308000000022420000E43F10B59448006820F0A0
:103090007040924908600846006840F0405008605F
:1030A00000208F49086040F2F32000F038F9012039
:1030B0008C49C1F89C01142000F031F910BD10B505
:1030C00000248648006820F0704084490860084663
:1030D000006840F00040086004E0601CC4B20620B4
:1030E00000F01DF97E488038006808B1C82CF4DB78
:1030F000C82C01DB012010BD002404E0601CC4B218
:10310000062000F00CF976488038006808B9F02CE9
:10311000F4DBF02C01DB0120EDE70020EBE710B53C
:103120006E48006820F070406C49086008460068EE
:1031300040F040500860002069490860072000F016
:10314000EEF801206749C1F89C016448006820F04E
:103150007040624908600846006840F0004008601E
:10316000112000F0DCF85E488038006808B10124C6
:1031700000E00024372000F0D2F8204610BD70B5E2
:103180000026012508E0FFF7CAFF0446E00140EAF7
:103190006600C6B2681CC5B2082DF4DD304670BDAD
:1031A00070B504464D48006820F070404B490860F7
:1031B0000846006840F040500860012520E004F017
:1031C000010664106EB1002045490860072000F038
:1031D000A6F801204349C1F89C01412000F09FF866
:1031E0000CE000203E490860412000F098F80120E2
:1031F0003C49C1F89C01072000F091F8681CC5B259
:10320000082DDCDD70BD10B5FFF73EFFFFF757FF5F
:10321000CC20FFF7C5FF4420FFF7C2FF10BD08B563
:103220000121102000F04CFD8020ADF8000010209E
:103230008DF8030003208DF802006946274800F04E
:1032400083FA8021254800F02CFBFFF71DFFFFF7D4
:1032500036FF08BD2DE9F84FFFF7D5FFFFF714FF44
:10326000FFF72DFFCC20FFF79BFFBE20FFF798FF55
:10327000FFF785FF8346FFF782FF0446072C08DD32
:10328000E043C4B26FEA0B0000F0FF0B4FF0000AFE
:1032900001E04FF0010AA1464FEA09200FFA80F938
:1032A00009EB0B000FFA80F9484603F00BFE009083
:1032B00003F05AFD074600220B4B03F057FC05466E
:1032C00003F012FC0FFA80F9BAF1000F02D0484661
:1032D000BDE8F88FC9F1000000B2F9E70010014025
:1032E0009C012242000022420000E43F10B56FF032
:1032F000040000F0AAF92E4800682E49B0FBF1F056
:103300002D4908700846007800EB4001C1EBC01061
:103310004FF6FF7101EAC0002849088010BD014640
:10332000254A12784A434FF0E0235A6100229A61FD
:103330001A46126942F001021A6100BF4FF0E02202
:10334000106900F001021AB100F48032002AF5D0B1
:103350004FF0E022126922F001024FF0E0231A61DF
:1033600000229A6170470146144A12884A434FF07E
:10337000E0235A6100229A611A46126942F0010262
:103380001A6100BF4FF0E022106900F001021AB18B
:1033900000F48032002AF5D04FF0E022126922F0CA
:1033A00001024FF0E0231A6100229A617047000089
:1033B0002400002000127A00A2000020A4000020B7
:1033C000014600BF704700BF634A128802F0400206
:1033D000002AF9D0C2B2604B1B1D1A80704710B58D
:1033E00086B00446012144F2040000F069FC5A480A
:1033F00000F0CAFC4FF40070ADF8140003208DF803
:10340000160018208DF8170005A9544800F09CF903
:103410004FF48060ADF8140004208DF8170005A962
:103420004E4800F091F925208DF8000003208DF81A
:1034300001008DF8020001208DF80300684600F0BD
:10344000BAF801940020ADF80800ADF80A00ADF814
:103450000C00ADF810000C20ADF80E0001A93E489C
:1034600000F0D5FC012240F225513B4800F067FDF9
:103470000121394800F057FD06B010BD0FB438B532
:1034800005A800903648009A049901F0B7FF002083
:103490000090334801F0D0FF054600BF2E48008859
:1034A00000F040000028F9D000240CE02C48005D1A
:1034B0002949091D088000BF2748008800F0400006
:1034C0000028F9D0641CAC42F0D338BC5DF814FB82
:1034D00010B5024600BF204B1B8803F04003002BB1
:1034E000F9D000200BE0135C1B4C241D238000BF8F
:1034F000194B1B8803F04003002BF9D0401C884275
:10350000F1DB10BD10B540F22551134800F0FCFD71
:1035100090B1114800F078FDC4B2124812490988F0
:10352000445411480088401C0F4908800846008810
:10353000C72801DD0020088010BD10B5024600201C
:1035400003E012F8014B2318D8B20B1EA1F10104BD
:10355000E1B2F6D1C0B210BD003801400008014010
:103560003012002068110020AC000020094880477C
:1035700009480047FEE7FEE7FEE7FEE7FEE7FEE755
:10358000FEE7FEE7FEE7FEE704480549054A064B6D
:1035900070470000DF0B0008ED00000890130020CA
:1035A000901900209015002090150020314901430A
:1035B000314A1160704770B5002100230F22C47892
:1035C00004B32D4C246804F4E064C4F5E064210ADB
:1035D000C1F10403CA40447804FA03F1847814402A
:1035E00021430901254C0678A155047804F01F05F4
:1035F0000124AC4005786D11AD0005F1E025C5F85A
:10360000004109E0047804F01F050124AC401C4D82
:103610000678761145F8264070BD1A4A0A400243E2
:10362000154B1B1F1A60704739B1134A121D1268DF
:103630000243114B1B1D1A6006E00F4A121D12684F
:1036400082430D4B1B1D1A607047042808D14FF0B0
:10365000E021096941F004014FF0E022116107E027
:103660004FF0E021096921F004014FF0E0221161DF
:10367000704700000000FA050CED00E000E400E0F7
:1036800080E100E080FFFF1F10B50446CC48844273
:1036900008D10121042000F02DFB0021042000F0BE
:1036A00029FB46E0C748844208D10121082000F0E8
:1036B00021FB0021082000F01DFB3AE0C2488442B3
:1036C00008D10121102000F015FB0021102000F08E
:1036D00011FB2EE0BD48844208D10121202000F0DA
:1036E00009FB0021202000F005FB22E0B8488442BD
:1036F00008D10121402000F0FDFA0021402000F017
:10370000F9FA16E0B348844208D10121802000F084
:10371000F1FA0021802000F0EDFA0AE0AE48844280
:1037200007D10121801500F0E5FA0021A01500F075
:10373000E1FA10BD10B50121084600F0DBFA0021C6
:10374000012000F0D7FA10BD2DE9F0410246002516
:103750000026002000230024002791F803C00CF06D
:103760000F0591F803C00CF0100CBCF1000F03D052
:1037700091F802C04CEA050591F800C0BCF1000FB9
:1037800031D0146800202BE04FF0010C0CFA00F34C
:10379000B1F800C00CEA03069E4220D183004FF02E
:1037A0000F0C0CFA03F7BC4305FA03FC4CEA0404C3
:1037B00091F803C0BCF1280F06D14FF0010C0CFAB0
:1037C00000FCC2F814C00AE091F803C0BCF1480F35
:1037D00005D14FF0010C0CFA00FCC2F810C0401CDF
:1037E0000828D1D31460B1F800C0BCF1FF0F34DD5C
:1037F000546800202EE000F1080C4FF0010808FA90
:103800000CF3B1F800C00CEA03069E4221D18300FC
:103810004FF00F0C0CFA03F7BC4305FA03FC4CEA1B
:10382000040491F803C0BCF1280F05D100F1080C85
:1038300008FA0CF8C2F8148091F803C0BCF1480FE4
:1038400007D100F1080C4FF0010808FA0CF8C2F893
:103850001080401C0828CED35460BDE8F0814FF69C
:10386000FF710180022181700421C17070470246FE
:10387000002093680B400BB1012000E0002070474E
:103880000146886880B2704702460020D3680B402A
:103890000BB1012000E0002070470146C86880B2EB
:1038A000704701617047416170470AB1016100E0F2
:1038B00041617047C16070474FF480320A438261B2
:1038C0008161826182698269704702460020434BB0
:1038D00018684FF68073184040EA021008433F4BC7
:1038E000186070473E49C8617047F0B50A4600232A
:1038F00000240021002500F00046B6F1004F02D15F
:10390000364EF16901E0354E7168C0F3034583B26C
:1039100000F44016B6F5401F08D121F070612F4E1B
:10392000766826F070662D4F7E6012E000F48016F7
:10393000B6F5801F06D1032606FA05F4A14341F02F
:10394000706106E0460D360103FA06F6B14341F018
:10395000706122B1460D360103FA06F6314300F0DC
:103960000046B6F1004F02D11C4EF16101E01B4E42
:103970007160F0BD30B500228B071C0F0F2303FAD6
:1039800004F2164B08338C1053F824309343134C35
:1039900008348D1044F8253023468C1053F8243019
:1039A0008C07240F00FA04F423430C4C08348D10C8
:1039B00044F8253030BD0A49DC310860704700000A
:1039C00000080140000C01400010014000140140BB
:1039D00000180140001C014000200140000001408F
:1039E00000002042DF48006840F00100DD49086027
:1039F00008464068DC490840DA49486008460068E3
:103A0000DA490840D74908600846006820F4802059
:103A100008600846406820F4FE0048604FF41F002C
:103A200088607047CF49096821F48031CD4A116020
:103A30001146096821F480211160B0F5803F03D060
:103A4000B0F5802F0ED106E0C649096841F48031F7
:103A5000C44A116007E0C349096841F4A021C14A82
:103A6000116000E000BF00BF704710B501460022A2
:103A7000002300204A11012A02D1BA4C236806E033
:103A8000022A02D1B74C236A01E0B64C636A01F006
:103A90001F02012494401C400CB1012000E00020D2
:103AA00010BD38B5002000900024002500BF312053
:103AB000FFF7DBFF05460098401C00900098B0F52A
:103AC000A06F01D0002DF2D03120FFF7CEFF08B15A
:103AD000012400E00024204638BD01460020A14A10
:103AE000106820F0F80040EAC10010607047A0495B
:103AF00008607047024600209A4B586820F47C10FA
:103B000042EA01031843974B58607047984908668A
:103B1000704701460020934A506820F00300084394
:103B2000506070478F48406800F00C0070470146B5
:103B300000208C4A506820F0F00008435060704725
:103B400001460020874A506820F4E0600843506036
:103B5000704701460020834A506820F4605040EAD4
:103B6000C1005060704729B17E4A527A02437D4BB2
:103B70005A7204E07B4A527A82437A4B5A727047F7
:103B80007B49D8310860704701460020754A50686B
:103B900020F440400843506070470021714A2032B1
:103BA0001170704A82F82010012802D004280AD12E
:103BB00004E001216B4A2032117005E00521694AB9
:103BC0002032117000E000BF00BF704769490860F3
:103BD00070476449096A0143624A11627047654946
:103BE00044390860704730B50021002200240023CA
:103BF0005C4D6D6805F00C0121B1042905D0082940
:103C000023D105E05C4D056022E05B4D05601FE0BF
:103C1000544D6D6805F47012524D6D6805F4803492
:103C2000022505EB92421CB9544D554305600BE04B
:103C30004C4D6D6805F400351DB1504D5543056080
:103C400002E04D4D5543056002E04B4D056000BF5D
:103C500000BF444D6D6805F0F0010909484D6B5CEB
:103C60000568DD4045603F4D6D6805F4E061090A77
:103C7000434D6B5C4568DD4085603A4D6D6805F4E9
:103C80006051C90A3E4D6B5C4568DD40C560354DED
:103C90006D6805F44041890B3A4D6B5CC568B5FB16
:103CA000F3F5056130BD29B12E4A526902432D4B0F
:103CB0005A6104E02B4A526982432A4B5A61704789
:103CC00029B1284A92690243264B9A6104E0254AA9
:103CD00092698243234B9A61704729B1214AD26984
:103CE0000243204BDA6104E01E4AD26982431D4B35
:103CF000DA61704729B11B4AD2680243194BDA6076
:103D000004E0184AD2688243164BDA60704729B142
:103D1000144A12690243134B1A6104E0114A1269F2
:103D20008243104B1A61704712494039086070474E
:103D30000F49C86470470B49C87170470948406A09
:103D400040F0807007494862704701460020054AEC
:103D500092680A400AB1012000E000207047014942
:103D600088727047001002400000FFF8FFFFF6FE67
:103D7000000042428004424200127A0000093D00E5
:103D8000AE000020BE00002010B50446FB4884426F
:103D900009D101218803FFF7ADFF00214FF48040D6
:103DA000FFF7A8FF32E0F648844209D10121480418
:103DB000FFF7ADFF00214FF40030FFF7A8FF25E02B
:103DC000F048844209D101218804FFF7A0FF0021B7
:103DD0004FF48020FFF79BFF18E0EB48844209D1A5
:103DE0000121C804FFF793FF00214FF40020FFF7E3
:103DF0008EFF0BE0E548844208D101210805FFF75A
:103E000086FF00214FF48010FFF781FF10BD2DE9E0
:103E1000F04786B005460E460024A24600BFA146E4
:103E20000027B08900B100BF2F462C8A4CF6FF70E6
:103E30000440F08804432C82AC894EF6F310044011
:103E4000B08831890843718908430443AC81AC8A46
:103E50004FF6FF400440B0890443AC8201A8FFF74D
:103E6000C2FEC648874202D1DDF810A001E0DDF8AD
:103E70000CA0A88900F4004040B10AEBCA0000EB96
:103E80000A1031684900B0FBF1F807E00AEBCA00FC
:103E900000EB0A1031688900B0FBF1F86420B8FB30
:103EA000F0F004012009642101FB1089A88900F4C5
:103EB000004040B1322000EBC900B0FBF1F000F04F
:103EC0000700044308E0322000EB09106421B0FB36
:103ED000F1F000F00F0004432C8106B0BDE8F0873C
:103EE0004FF41651016000218180C18001810C21B5
:103EF000418100218181704710B502460020108A5F
:103F00004FF2FF0318400B884C8823438C882343CF
:103F1000CC8823431843108210BD002101804180CA
:103F20008180C180704721B1828942F40052828130
:103F300004E082894DF6FF731A4082817047F0B524
:103F40000346002400260025002040F66A17B942E7
:103F500000D100BF1846C1F3421401F01F0601272B
:103F600007FA06F5012C01D10C3004E0022C01D136
:103F7000103000E014301AB107682F43076002E0E8
:103F80000768AF430760F0BD1AB1838A0B43838291
:103F900002E0838A8B4383827047028A4FF6F07374
:103FA0001A400282028A0A430282704782894FF2D3
:103FB000FF731A40828182890A438281704721B14E
:103FC000828942F00202828104E082894FF6FD7309
:103FD0001A4082817047028A4FF6DF731A400282CC
:103FE000028A0A430282704721B1028A42F4804267
:103FF000028204E0028A4BF6FF731A400282704785
:10400000C1F308028280704701468888C0F3080027
:104010007047818941F0010181817047028BD2B2E2
:104020000283028B42EA012202837047028B02F470
:104030007F420283028B0A430283704721B1828A46
:1040400042F02002828204E0828A4FF6DF731A4037
:104050008282704721B1828A42F01002828204E09B
:10406000828A4FF6EF731A408282704721B1828AAA
:1040700042F00802828204E0828A4FF6F7731A4007
:104080008282704721B1828942F40042828103E03A
:104090008289C2F30E028281704721B1828A42F482
:1040A0000062828204E0828A4FF2FF731A408282A9
:1040B0007047828A4FF6FB731A408282828A0A43D3
:1040C0008282704721B1828A42F00202828204E039
:1040D000828A4FF6FD731A408282704702460020A2
:1040E000B1F5007F00D100BF13880B400BB1012058
:1040F00000E00020704701F40072B2F5007F00D1AB
:1041000000BFCA430280704770B5024600240023F6
:104110000025002040F66A16B14200D100BFC1F36D
:10412000421501F01F03012606FA03F3012D02D107
:104130009689334006E0022D02D1168A334001E011
:10414000968A33400C12012606FA04F4168834408D
:1041500013B10CB1012000E0002070BD10B50022A9
:10416000002340F66A14A14200D100BF0A120124C4
:104170009440A3B2DC43048010BD0000003801402D
:104180000044004000480040004C00400050004007
:1041900010B50446FE48844208D10121C014FFF73F
:1041A000A9FD0021E014FFF7A5FDC4E0B4F1804FA4
:1041B00008D101210846FFF7AAFD00210120FFF7E1
:1041C000A6FDB8E0F348844208D101210220FFF7A0
:1041D0009EFD00210220FFF79AFDACE0EE488442EC
:1041E00008D101210420FFF792FD00210420FFF7F0
:1041F0008EFDA0E0E948844208D101210820FFF7A4
:1042000086FD00210820FFF782FD94E0E448844207
:1042100008D101211020FFF77AFD00211020FFF7BF
:1042200076FD88E0DF48844208D101212020FFF795
:104230006EFD00212020FFF76AFD7CE0DA48844211
:1042400008D101214014FFF755FD00216014FFF74C
:1042500051FD70E0D548844209D10121C804FFF71F
:1042600049FD00214FF40020FFF744FD63E0D048F2
:10427000844209D101210805FFF73CFD00214FF4DC
:104280008010FFF737FD56E0CA48844209D101216A
:104290004805FFF72FFD00214FF40010FFF72AFD1E
:1042A00049E0C548844208D101214020FFF72FFD95
:1042B00000214020FFF72BFD3DE0C048844208D19B
:1042C00001218020FFF723FD00218020FFF71FFD43
:1042D00031E0BB48844208D101218015FFF717FD6A
:1042E0000021A015FFF713FD25E0B648844209D14F
:1042F00001210804FFF7FEFC00214FF48030FFF796
:10430000F9FC18E0B048844209D101214804FFF7C4
:10431000F1FC00214FF40030FFF7ECFC0BE0AB4860
:10432000844208D101218804FFF7E4FC00214FF406
:104330008020FFF7DFFC10BD00220288944B9842DA
:104340000ED0994B98420BD0B0F1804F08D0914BD2
:10435000984205D0904B984202D0904B984204D19D
:104360004FF68F731A404B881A438D4B984207D0F3
:104370008C4B984204D04FF6FF431A40CB881A4327
:1043800002808B8883850B880385814B98420BD0F4
:10439000854B984208D08B4B984205D08A4B984267
:1043A00002D08A4B984201D10B7A03860123838283
:1043B000704770B5002400220023058C4FF6FE766E
:1043C00035400584028C8388048B4FF68F752C4012
:1043D000B51E2C400D882C43751E2A400D892A439A
:1043E0004D882A436A4DA8420BD06F4DA84208D091
:1043F000744DA84205D0744DA84202D0734DA84216
:1044000013D14FF6F7752A404D892A434FF6FB75B5
:104410002A408D882A434FF6FF652B404FF6FF5503
:104420002B408D892B43CD892B4383800483CD88FA
:104430008586028470BD70B5002400220023058C9F
:104440004FF6EF7635400584028C8388048B48F65E
:10445000FF752C404FF6FF452C400D884FF6FF7638
:1044600006EA05252C434FF6DF752A400D8906EA3A
:1044700005152A434D8806EA05152A43444DA842EE
:1044800002D0494DA8421DD14FF67F752A404D8973
:104490004FF6FF7606EA05152A434FF6BF752A4008
:1044A0008D8806EA05152A434FF6FF352B404FF25B
:1044B000FF752B408D8906EA85052B43CD8906EAD9
:1044C00085052B4383800483CD880587028470BDD6
:1044D00070B5002400220023058C4FF6FF6635409E
:1044E0000584028C8388848B4FF68F752C404FF6A1
:1044F000FC752C400D882C434FF6FF552A400D8942
:104500004FF6FF7606EA05252A434D8806EA05257B
:104510002A431F4DA84202D0234DA8421DD14FF27D
:10452000FF752A404D894FF6FF7606EA05252A4396
:104530004FF6FF352A408D8806EA05252A434EF6B8
:10454000FF752B404DF6FF752B408D8906EA05154A
:104550002B43CD8906EA05152B4383808483CD88C0
:104560008587028470BD70B5002200230024058C6D
:104570004EF6FF7635400584038C8488828B48F69E
:10458000FF752A404FF6FF452A400D8820E00000C5
:10459000002C01400004004000080040000C0040D6
:1045A000001000400014004000340140004C014065
:1045B000005001400054014000180040001C004021
:1045C00000200040004001400044014000480140FC
:1045D0004FF6FF7606EA05252A434DF6FF752B4078
:1045E0000D8906EA05352B434D8806EA05352B4330
:1045F000FA4DA84202D0FA4DA84208D14BF6FF75F9
:104600002C408D894FF6FF7606EA85152C43848071
:104610008283CD88A0F84050038470BD828B4FF216
:10462000FF331A408283828B4FF6FF7303EA012324
:104630001A4382837047F0B50C46154600220021CC
:104640000026078C4EF6FF7C07EA0C070784828B56
:10465000018C4FF6FF7707EA043640F6FF473A40F1
:104660004FF6FF7707EA05273A434FF6FF7707EA49
:1046700003373A43D94FB8420ED0D94FB8420BD086
:10468000B0F1804F08D0D74FB84205D0D64FB842CE
:1046900002D0D64FB84206D14DF6FF77394046F4E6
:1046A0008057394305E047F6FF57394044F48057B7
:1046B000394382830184F0BD828B4FF6F3731A4035
:1046C0008283828B0A4382837047F0B50C4615467D
:1046D000002200210026078C4FF6FF6C07EA0C072A
:1046E0000784828B018C4FF6FF7707EA04264FF68A
:1046F0000C773A404FF6FF7707EA03172F433A4308
:10470000B64FB8420ED0B64FB8420BD0B0F1804F82
:1047100008D0B44FB84205D0B34FB84202D0B34F1F
:10472000B84206D14FF6FF57394046F480773943F7
:1047300005E04FF2FF57394044F4807739438283D4
:104740000184F0BD028B4FF2FF331A400283028BCB
:104750004FF6FF7303EA01231A4302837047F0B553
:104760000C461546002200210026078C4FF6EF7CF0
:1047700007EA0C070784028B018C4FF6FF7707EAE4
:10478000041640F6FF473A404FF6FF7707EA033733
:104790003A434FF6FF7707EA05273A438F4FB8426F
:1047A0000ED08F4FB8420BD0B0F1804F08D08D4F54
:1047B000B84205D08C4FB84202D08C4FB84206D1D7
:1047C0004FF6DF77394046F01007394305E04FF6E2
:1047D0005F77394044F01007394302830184F0BD0C
:1047E000028B4FF6F3731A400283028B0A43028353
:1047F0007047F0B50C46154600220021068C4FF696
:10480000FE773E400684028B018C4FF60C763240D8
:104810007E1C06EA03162E433243704EB0420ED081
:104820006F4EB0420BD0B0F1804F08D06D4EB04209
:1048300005D06D4EB04202D06C4EB04206D14FF65C
:10484000FD76314044F00106314305E04FF6F57640
:10485000314044F00106314302830184F0BD70B55C
:1048600005460C465D4885420ED05D4885420BD01A
:10487000B5F1804F08D05B48854205D05A48854243
:1048800002D05A48854200D100E000BF208850B9CC
:104890002389A28861882846FFF7ABFFE188284674
:1048A000FFF79EFF25E0208804280AD12389A288EB
:1048B00061882846FFF753FFE1882846FFF742FF4B
:1048C00017E0208808280AD12389A2886188284611
:1048D000FFF7FBFEE1882846FFF7EEFE09E023899B
:1048E000A28861882846FFF7A6FEE1882846FFF7E0
:1048F00095FE70BD2DE9F04105460C4600260127C6
:10490000608808B9022600E00026A088012801D1AD
:10491000022700E001272088A0B92389A2886188A6
:104920002846FFF766FFE1882846FFF759FF2389ED
:104930003A4631462846FFF712FFE1882846FFF73E
:1049400001FF13E02389A28861882846FFF707FF4B
:10495000E1882846FFF7F6FE23893A463146284685
:10496000FFF747FFE1882846FFF73AFFBDE8F081EF
:104970000A884B881A438B881A43CB881A430B89C1
:104980001A434B891A438B891A43A0F84420704775
:104990004FF6FF71818000210180C180418001724A
:1049A00070470021018041808180C1800181418167
:1049B0008181C18170470021018041800121818076
:1049C0000021C180018170470021018041808180E8
:1049D000C18001814181818170470000002C01402C
:1049E000003401400004004000080040000C00407A
:1049F00021B1028842F00102028004E002884FF6F1
:104A0000FE731A400280704731B1B0F8442042F47E
:104A10000042A0F8442005E0B0F84420C2F30E02A2
:104A2000A0F8442070471AB183890B43838102E0C8
:104A300083898B43838170478182704741EA0203F7
:104A4000A0F8483070471AB183890B43838102E094
:104A500083898B438381704701894FF6F872114037
:104A6000018170470A46002101894FF68F73194072
:104A700011430181704730B504460D462946204652
:104A8000FFF7F0FF208940F00700208130BD2DE9BD
:104A9000F04104460D4616461F46602D06D13B46A2
:104AA000012231462046FFF75AFE05E03B4601222F
:104AB00031462046FFF79DFE29462046FFF7D2FFEC
:104AC000208940F007002081BDE8F08130B50C4618
:104AD00000210189C9B24FF6FF7505EA0325154388
:104AE00025432943018130BD2DE9F04105460E469D
:104AF00017469846002443463A4631462846FFF773
:104B0000E5FF2C894FF6F870044044F007044FF697
:104B10008F70044044F070042C81BDE8F081F0B542
:104B200004460D4616461F463B4632462946204659
:104B3000FFF7CCFF208940F480402081F0BD018543
:104B4000828270470A46002101884FF68F73194010
:104B5000114301807047F0B50C4615461E460021F2
:104B6000002200230189028B038C4FF6F87739402D
:104B700021434FF6FC473A4040F201173A434FF6C3
:104B8000DD773B404FF6FF7707EA06172F433B439D
:104B9000018102830384F0BD0A460021018B4FF698
:104BA0008F7319401143018370470A460021018B1E
:104BB00048F6FF7319404FF6FF7303EA02231943C7
:104BC000018370470A460021818B4FF68F7319408D
:104BD0001143818370470A460021818B48F6FF7399
:104BE00019404FF6FF7303EA02231943818370478C
:104BF00021B1028842F08002028004E002884FF670
:104C00007F731A400280704721B1828842F004020B
:104C1000828004E082884FF6FB731A4082807047DE
:104C200021B1828842F00802828004E082884FF637
:104C3000F7731A408280704721B1828842F00102E6
:104C4000828004E082884FF6FE731A4082807047AB
:104C50000A460021018B4FF6F77319401143018377
:104C600070470A460021018B4FF2FF7319404FF63F
:104C7000FF7303EA02231943018370470A460021A8
:104C8000818B4FF6F77319401143818370470A46B1
:104C90000021818B4FF2FF7319404FF6FF7303EA37
:104CA00002231943818370470A460021018B4FF686
:104CB000FB7319401143018370470A460021018BA1
:104CC0004FF6FF3319404FF6FF7303EA02231943EF
:104CD000018370470A460021818B4FF6FB73194010
:104CE0001143818370470A460021818B4FF6FF33C1
:104CF00019404FF6FF7303EA02231943818370477B
:104D00000A460021018B4FF67F731940114301833E
:104D100070470A460021018BC1F30E014FF6FF7365
:104D200003EA02231943018370470A460021818B5D
:104D30004FF67F7319401143818370470A46002163
:104D4000818BC1F30E014FF6FF7303EA022319436F
:104D5000818370470A460021018C4FF6FD7319408C
:104D60001143018470470A460021018C4FF6F77306
:104D700019401143018470470A460021018C4FF607
:104D8000DF7319404FF6FF7303EA021319430184DE
:104D900070470A460021018C4FF67F7319404FF689
:104DA000FF7303EA02131943018470470A46002186
:104DB000018C4FF6FF5319404FF6FF7303EA0223AD
:104DC0001943018470470A460021018C4FF2FF739A
:104DD00019404FF6FF7303EA022319430184704719
:104DE0000A460021018C4DF6FF7319404FF6FF7300
:104DF00003EA023319430184704730B500230124CC
:104E00008C40A3B2048C9C430484048C02FA01F508
:104E1000ADB22C43048430BD30B5002304248C4053
:104E2000A3B2048C9C430484048C02FA01F5ADB255
:104E30002C43048430BD70B503460020002418467E
:104E4000183001258D40ACB21D8CA5431D8409B1DD
:104E5000082909D100EB6100056825F0700505609F
:104E60000568154305600EE00D1FC5F34E05284487
:104E7000056825F4E045056005684FF6FF7606EA0B
:104E800002263543056070BD21B1028842F002025E
:104E9000028004E002884FF6FD731A4002807047DA
:104EA00021B1028842F00402028004E002884FF639
:104EB000FB731A400280704721B1828842F0800261
:104EC000828004E082884FF67F731A4082807047A8
:104ED00002884FF6F7731A40028002880A43028064
:104EE000704782884FF68F731A40828082880A4307
:104EF0008280704702894FF6F8731A400281028956
:104F00000A430281704702894FF67F731A4002817B
:104F100002890A4302817047818470478185704706
:104F2000818670470187704781877047A0F84010DD
:104F3000704702884FF6FF431A40028002880A43F6
:104F4000028070470146888E70470146088F70477F
:104F50000146888F70470146B1F84000704701460E
:104F6000888C70470146088D704702460020138ADE
:104F70000B400BB1012000E000207047CA430282C1
:104F8000704730B50246002000230024158A05EA48
:104F90000103958905EA010413B10CB1012000E079
:104FA000002030BDCA4302827047000010B504469D
:104FB000FA48844208D101214015FEF79BFE0021EA
:104FC0006015FEF797FE17E0F548844208D10121ED
:104FD0000015FEF78FFE00212015FEF78BFE0BE07B
:104FE000F048844208D10121C803FEF783FE002166
:104FF0004FF40040FEF77EFE10BD30B502460020A3
:1050000000235068E84C20400D790C6844EA0524E0
:10501000204350609068E54C2040D1E902542C4375
:105020004D7944EA450420439060D06A20F4700032
:105030000C7C641EE4B2234340EA0350D06230BDCE
:1050400000210160017141718160C1600121017421
:10505000704721B1826842F00102826003E08268F9
:1050600022F001028260704721B1826842F48072AE
:10507000826003E0826822F480728260704710B51B
:105080000023CBB21AB144681C43446002E0446878
:105090009C43446010BD816841F008018160704705
:1050A000014600208A6802F008020AB1012000E0EF
:1050B00000207047816841F004018160704701461B
:1050C00000208A6802F004020AB1012000E00020FA
:1050D000704721B1826842F4A002826003E08268D6
:1050E00022F4A00282607047014600208A6802F420
:1050F00080020AB1012000E00020704710B50A4686
:1051000000210023416821F46041531E41EA4331EC
:10511000416010BD21B1426842F40062426003E088
:10512000426822F4006242607047F0B504460D46C2
:1051300000200021092D11DDE068A5F10A0606EB2B
:105140004607072606FA07F18843A5F10A0606EB8B
:10515000460603FA06F10843E0600CE0206905EB1F
:105160004507072606FA07F1884305EB450603FACB
:1051700006F108432061072A0FDA606B561E06EB22
:1051800086071F2606FA07F18843561E06EB860699
:1051900005FA06F10843606322E00D2A0FDA206B5E
:1051A000D61F06EB86071F2606FA07F18843D61F8F
:1051B00006EB860605FA06F10843206310E0E06A74
:1051C000A2F10D0606EB86071F2606FA07F18843B3
:1051D000A2F10D0606EB860605FA06F10843E06229
:1051E000F0BD21B1826842F48012826003E08268DF
:1051F00022F48012826070470146C86C80B270470A
:1052000066484C300068704721B1426842F48062C1
:10521000426003E0426822F480624260704721B13C
:10522000426842F48052426003E0426822F48052B5
:10523000426070470A460021816821F4E041114331
:105240008160704721B1826842F40042826003E0CD
:10525000826822F400428260704721B1826842F481
:105260000212826003E0826822F4021282607047B8
:10527000014600208A6802F400120AB1012000E011
:1052800000207047F0B50446154600200022002695
:10529000092911DDE068A1F10A0707EB470C072790
:1052A00007FA0CF29043A1F10A0707EB470703FA4C
:1052B00007F21043E0600CE0206901EB410C072786
:1052C00007FA0CF2904301EB410703FA07F210438F
:1052D0002061A06BC0F30156EF1C06F1010CA7EB97
:1052E0000C0707EB870C1F2707FA0CF29043EF1C03
:1052F00006F1010CA7EB0C0707EB870701FA07F291
:105300001043A063F0BD10B50A4600210023816B55
:1053100021F44011531E41EA0351816310BD08B5C9
:10532000002300930090009B0B440093009B1A60A5
:1053300008BD08B5024600200090009201F1280047
:10534000009B184400900098006880B208BD0A468F
:1053500000214168164B194011434160704741627A
:10536000826270470A460021416821F01F01114303
:105370004160704740B109490831096841F40001B2
:10538000064A0832116007E004490831096821F42F
:105390000001024A083211607047000000240140F9
:1053A00000280140003C0140FFFEF0FFFDF7F1FF47
:1053B000FFFD3FFF0246002013680B400BB10120A8
:1053C00000E000207047CA430260704770B5024693
:1053D0000020002300240B125568CEB205EA060413
:1053E00015681D4015B10CB1012000E0002070BD12
:1053F00000220A12D3430360704770471CB50C4665
:10540000064B7B4469460090204600F0F0F80446C5
:105410000020694600F0FEF820461CBD0F02000087
:105420000FB4044910B503AA029800F0F9F810BCB3
:105430005DF814FBA800002010B5431C02E010F832
:10544000011B71B18107FAD14FF0013202C88C1AE9
:105450008C4314EAC211F9D0C01A0A0603D0C01E48
:1054600010BDC01A10BD0A0401D0801E10BD090273
:10547000FCD0401E10BD704770477047704770B534
:10548000044685690068C10601D5302600E0202663
:10549000C00707D070BDD4E9012130469047206A8B
:1054A000401C20626D1EF6D570BD70B5044685693E
:1054B0000078C00707D170BDD4E9012120209047B2
:1054C000206A401C20626D1EF6D570BD09684A0531
:1054D00001D540B27047C905FCD500B270470968D4
:1054E0004A0501D5C0B27047C905FCD580B27047E6
:1054F00070B50C460546012A05D02878800600D5EF
:10550000EA69002302E0012305E05B1C934202D21A
:10551000E05C0028F9D1A869E618C01AA861286AD9
:10552000184428622846FFF7AAFF04E0D5E90121C4
:1055300014F8010B9047B442F8D32846FFF7B5FFA3
:1055400070BD00002DE9F041064600241068752961
:10555000314616A510D0FFF7B9FF002802DA404205
:1055600013A507E031688A0701D512A502E04907B3
:1055700004D511A5012401E0FFF7B1FF00210A22A3
:1055800006F1240709E0B0FBF2FCB0FBF2F302FBEA
:105590001C00303078541846491C0028F3D12346AB
:1055A0002A463046BDE8F04100F073BA0000000022
:1055B0002D0000002B000000200000001168026890
:1055C000006A530501D508700AE0D30501D50880AB
:1055D00006E0130603D5C217C1E9000200E0086027
:1055E0000120704701694A1C02610878704700B5C4
:1055F0008FB0CDE901310021059105497944CDE90C
:1056000003101146684600F03BF90FB000BD0000E2
:10561000E5FFFFFF0A6802F8010B0A60704700000F
:10562000074B70B50D467B44FFF7E1FF0446284663
:1056300000F0C3FC10B14FF0FF3070BD204670BDCC
:105640009DDDFFFF2DE9FF5F15468A460446DFF822
:10565000AC80F8440027D8E900103E46CDE90010A0
:1056600010E03AF816106A4602A800F0AAFC411CA5
:1056700007D02178890603D5E269391891420DD8FF
:105680000744761C2078800602D5E069B84205DD23
:10569000AE42E6DB3AF816000028E2D1A069C01B52
:1056A000A0612046FFF7EBFED8E90010CDE900101D
:1056B000002017E03AF818106A4602A800F081FCB2
:1056C000B0F1FF3F81460BD000250DF1080B05E03E
:1056D000D4E901211BF8050090476D1C4D45F7D317
:1056E00008F10100B0428046E4DB206A38442062C1
:1056F0002046FFF7DAFEBDE8FF9F00003A1B0000DE
:105700002DE9F0418046D21D22F007020025D2E9A2
:105710000002F52915A614D0011E72F1000106DA67
:105720000023D0EB030063EB020211A608E0D8F8D7
:1057300000108B0701D50FA602E0490701D50EA680
:1057400001251146002408F1240704E000F05CF96B
:1057500030323A55641C50EA0102F7D12B463246EA
:1057600021464046BDE8F04100F093B9000000003A
:105770002D0000002B0000002000000030B40021AC
:1057800000F1240408E002F00705D208303542EAAF
:105790004372DB086554491C52EA0305F3D10468DF
:1057A000002310A2250707D5A40600D421B1C4699F
:1057B00001230DA2641EC46130BC00F06AB910B5AB
:1057C000044621461068FFF78AFE02462046BDE8DF
:1057D00010400023D2E7D21D22F00701D1E90023B7
:1057E000CCE700000000000030000000F0B40D46DF
:1057F0000188090502D5214C7C4402E01F4C7C4401
:105800000E34002100F1240608E002F00F0712090F
:10581000E75D42EA03721B097754491C52EA030709
:10582000F3D102780023120704D5702D06D009B1F8
:10583000022311342246F0BC00F02BB901231034AE
:10584000F8E770B504460D4621461068FFF747FE9D
:10585000024629462046BDE870400023C6E7D21D17
:1058600022F00703D3E90023C0E70368126843F07E
:10587000200303600823C3610023B7E79C190000DD
:105880002DE9F05F894604464FF0000ADFF874B155
:10589000FB44C0F820A02046E1688847002874D067
:1058A000252806D0D4E901219047206A401C2062B7
:1058B000F1E700265F462046E16888472028054634
:1058C00007DB312D05D2781910F8200C08B10643FA
:1058D000F1E7B00701D526F00406C4F81CA00027A4
:1058E000C4F818A02A2D09D0284601F097F838B33B
:1058F00004EB8708303DC8F8185019E059F8041B2C
:10590000204604EB87029161E1688847012F054634
:1059100018D1E069002820DA26F020061DE0D8F82A
:10592000180000EB800005EB40003038C8F8180084
:105930002046E1688847054601F070F80028EED15E
:10594000012F0AD02E2D08D12046E16888477F1C00
:105950000546022F46F02006C4DBA069002803DAC2
:10596000404246F00106A061F00701D026F0100683
:105970006C2D0BD0682D09D04C2D39D06A2D35D027
:10598000742D35D07A2D33D016E038E0E1682F46FB
:1059900020468847B842054609D16C2F26D04FF4DF
:1059A0008060E168064320468847054604E06C2F86
:1059B0001AD04FF4807006430DB3A5F141001928A9
:1059C00002D8203546F400664A462946204626601D
:1059D0004E46FAF7C5FB80B101280BD0F61D26F024
:1059E000070000F1080956E74020E4E78020D8E7E7
:1059F0000020D6E706F104094DE7284652E7206A61
:105A0000BDE8F09F2C19000030B5B0F10A024FEA52
:105A1000900E71F100034EEA817EB0EB0E0061EB57
:105A200091014FEA101E4EEA017E10EB0E0041EB91
:105A300011114FEA102E4EEA016E10EB0E0041EBF1
:105A400011214FEA104E4EEA014E10EB0E0041EBD1
:105A50001141401841F100014FEAD00040EA417085
:105A60004FEAD10110EB80054FEA810444EA9074BB
:105A700044EB01046D1944EB0404521BA3414FF0A5
:105A8000000348BF0A3200D530BD401C41F100017F
:105A900030BD2DE9F0470D4699469246044600F187
:105AA00024080168880604D5E06921F0100121600E
:105AB00000E00120A84201DD471B00E00027A169AA
:105AC0007A1902EB0900081AA0612078C00602D4F6
:105AD0002046FFF7D4FC002608E0D4E901211AF89B
